:06000000020E8D020068F3
:01000B0032C2
:03001300020307DE
:0300650002001680
:030016000205EBF5
:10006800C021C0E0C0F0C082C083C007C006C00580
:10007800C004C003C002C001C000C0D075D0087F52
:100088000075523C8F5375544090004875F040C03D
:100098000F75D0001205A675D00875523E7553002D
:1000A80075544090004A75F04075D0001205A67549
:1000B800D00875524075530075544090004C75F047
:1000C8004075D0001205A675D000120E1875D00024
:1000D800120DD275D008D00FD200D201D202C00FB3
:1000E80075D000120DDE75D000120DC675D00875DA
:1000F800820075D000120E3075D008D00F30B203D0
:100108000202C6C00F75D000120D4E75D008AE821F
:10011800D00F30B2030202C6BE2A23EF70047F0755
:10012800800A1FBF02028003BF05011F8F82C00F14
:1001380075D000120E3075D008D00F0201CEBE2344
:1001480022BF07047F00800A0FBF02028003BF0599
:10015800010F8F82C00F75D000120E3075D008D0F5
:100168000F8063BF00028019BF01028018BF03021D
:100178008017BF04028016BF06028015BF071880CB
:10018800148E4880128E49800E8E4A800A8E4B80CB
:10019800068E4C80028E4D0FBF08047F008009BF79
:1001A80002028003BF05010F8E82C00F75D00012B6
:1001B8000E4075D008D00F8F82C00F75D000120E78
:1001C8003075D008D00FC00F75D00012075475D005
:1001D80008AD82AE83D00FBD0105BE0002800302C8
:1001E800027475820975D000120E3075D008900F10
:1001F800CB75F08075D000120E4D75D000120D4EE3
:1002080075D000120E2475D00875523C75530075D0
:10021800544090004875F04075D0001205A675D07E
:100228000875523E75530075544090004A75F04069
:1002380075D0001205A675D0087552407553007523
:10024800544090004C75F04075D0001205A675D04A
:100258000012072A75D0087F00758200C00F75D07C
:1002680000120E3075D008D00F020105758268C0E3
:100278000F75D00012080D75D0088582308583313E
:1002880075826D75D00012080D75D008858232858B
:10029800833375827375D00012080D75D008858276
:1002A8003485833575D0001209BB75D000120A2336
:1002B80075D000120A8B75D008D00F02010575D0D1
:1002C80000120E1875D000120DD275D008D200C2D7
:1002D80001C20275D000120DDE75D00012072A7512
:1002E800D008D0D0D000D001D002D003D004D0059F
:1002F800D006D007D083D082D0F0D0E0D02132C051
:1003080021C0E0C0F0C082C083C007C006C005C0DD
:1003180004C003C002C001C000C0D075D0087F402F
:100328007552427553008F5490004875F040C00FC5
:1003380075D0001205A675D008755244755300751E
:10034800544090004A75F04075D0001205A675D04B
:100358000875524675530075544090004C75F0402E
:1003680075D0001205A675D000120E1875D00012AF
:100378000DD275D008D00FD200D201D202C00F75AD
:10038800D000120DDE75D000120DC675D00875822A
:100398004075D000120E3075D008D00F30B303026C
:1003A8000565C00F75D000120D4E75D008AE82D00D
:1003B8000F30B303020565BE2A23BF40047F478080
:1003C8000A1FBF42028003BF45011F8F82C00F75FD
:1003D800D000120E3075D008D00F02046DBE232253
:1003E800BF47047F40800A0FBF42028003BF450118
:1003F8000F8F82C00F75D000120E3075D008D00F45
:100408008063BF40028019BF41028018BF43028049
:1004180017BF44028016BF46028015BF47188014D4
:100428008E4880128E49800E8E4A800A8E4B800636
:100438008E4C80028E4D0FBF48047F408009BF421A
:10044800028003BF45010F8E82C00F75D000120EC7
:100458004075D008D00F8F82C00F75D000120E30B3
:1004680075D008D00FC00F75D0001207A375D0083B
:10047800AD82AE83D00FBD0105BE00028003020528
:100488001375824975D000120E3075D008900FCBC5
:1004980075F08075D000120E4D75D000120D4E7596
:1004A800D000120E2475D008755242755300755449
:1004B8004090004875F04075D0001205A675D00828
:1004C80075524475530075544090004A75F0407554
:1004D800D0001205A675D00875524675530075549C
:1004E8004090004C75F04075D0001205A675D000FC
:1004F80012072A75D0087F40758240C00F75D0005A
:10050800120E3075D008D00F0203A4758268C00F90
:1005180075D00012080D75D0088582368583377529
:10052800826D75D00012080D75D0088582388583D4
:100538003975827375D00012080D75D00885823A16
:1005480085833B75D000120AF375D000120B5B75DA
:10055800D000120BC375D008D00F0203A475D000C9
:10056800120E1875D000120DD275D008D200C20133
:10057800C20275D000120DDE75D00012072A75D0A0
:1005880008D0D0D000D001D002D003D004D005D0FC
:1005980006D007D083D082D0F0D0E0D02132858237
:1005A8005585835685F0577B007C00EB2555F8EC84
:1005B8003556F9AA57EB2552FDEC3553FEAF548D4D
:1005C800828E838FF0120F41FD888289838AF01210
:1005D8000E930BBB00010CC3EB9402EC6480948077
:1005E80040C922D288D28A75A8851206D9120D333D
:1005F8000534E4B534020535C3E534943CE5356487
:100608008094804014E4F534F5350532B53202059E
:1006180033120A8B120A238003120A8BC3E5329421
:100628003CE533648094804012E4F532F5330530BC
:10063800B530020531120A231209BBC3E5309418FC
:10064800E531648094804012E4F530F5310536B523
:10065800360205371209BB120AF3120927AE82AF18
:1006680083C3E5369EE53764808FF063F08095F0AC
:1006780040147536017537000538E4B53802053978
:10068800120AF3120B5BC3E538940CE539648094C5
:10069800804014753801753900053AE4B53A020509
:1006A8003B120B5B120BC3C3E53A9464E53B6480D1
:1006B80094804008E4F53AF53B120BC3120E181269
:1006C8000DD2D200C201C202120DDE12072A0205A3
:1006D800F5E4F530F531753C30753D30F532F533DC
:1006E800753E30753F30F534F5357540307541301D
:1006F800753601F537754230754331753801F5396E
:10070800754430754531F53AF53B754630754730D7
:10071800120E18120DD2D200C201C202120DDE0250
:10072800072A120C2B75823A120E40120C5775824A
:100738003A120E40120C83120CAF75822D120E4025
:10074800120CDB75822D120E40020D07758268129D
:10075800080DAE82AF83C3EE9418EF648094804096
:10076800049000012275826D12080DAE82AF83C31A
:10077800EE943CEF648094804004900001227582DE
:100788007312080DAE82AF83C3EE943CEF6480947D
:1007980080400490000122900000227582731208A4
:1007A8000DAE82AF83C374649E74808FF063F08053
:1007B80095F050049000012275826D12080DAE82EA
:1007C800AF83C3740C9E74808FF063F08095F050F3
:1007D800049000012275826812080DAE82AF83C0B2
:1007E80007C006120927AC82AD83D006D007C3EC38
:1007F8009EED64808FF063F08095F05004900001C6
:100808002290000022AF82E4F550F551BF680280C3
:100818000ABF6D028019BF733C8028755248755312
:100828000075544090004E75F0401205A68026755C
:10083800524A75530075544090004E75F0401205A9
:10084800A6801275524C75530075544090004E7531
:10085800F0401205A67C027F007A007B00EA244E55
:10086800F9E7FE3395E0FDEE24D0FEED34FFFD1CE4
:10087800BCFF011F8C828F83C007C006C005C0045F
:10088800C003C0021208D9858252858353D002D092
:1008980003D004D005D0068E828D83C004C003C067
:1008A80002120EAEAD82AE83D002D003D004D007C0
:1008B800ED2550F550EE3551F5510ABA00010BC33C
:1008C800EA9402EB6480948040938550828551833A
:1008D80022AE82AF83EE4F7004900001227C0A7D25
:1008E800001EBEFF011F7A007B008E008F01C3EA45
:1008F80098EB9950258C528D5390000AC007C0067A
:10090800C003C002120EAEAC82AD83D002D003D0B9
:1009180006D0070ABA00D30B80D08C828D8322E4DC
:10092800FEFFE53930E7030209B6C3740C95387445
:10093800808539F063F08095F050030209B6E538F8
:10094800240B83F582E538241183F583E473B670AC
:10095800767C82888E949AA0A6ACB2090909090906
:1009680009090909090909097E1F7F0080407E1CC1
:100978007F00803A7E1F7F0080347E1E7F00802E9D
:100988007E1F7F0080287E1E7F0080227E1F7F00C2
:10099800801C7E1F7F0080167E1E7F0080107E1FB9
:1009A8007F00800A7E1E7F0080047E1F7F008E826B
:1009B8008F8322AE30AF31C3EE940AEF6480948007
:1009C8005003753C307C017D00EE4F604D75520A36
:1009D8007553008E828F83C007C006C005C00412FD
:1009E8000F5DAA82AB83D004D005D006D00774303F
:1009F8002AFAE43BEC243CF9A70275520A75530025
:100A08008E828F83C005C004120F93AE82AF83D04D
:100A180004D0051CBCFF011D80AF22AE32AF33C32A
:100A2800EE940AEF648094805003753E307C017D1B
:100A380000EE4F604D75520A7553008E828F83C049
:100A480007C006C005C004120F5DAA82AB83D0049C
:100A5800D005D006D00774302AFAE43BEC243EF9DE
:100A6800A70275520A7553008E828F83C005C00491
:100A7800120F93AE82AF83D004D0051CBCFF011DBA
:100A880080AF22AE34AF35C3EE940AEF6480948011
:100A980050037540307C017D00EE4F604D75520A61
:100AA8007553008E828F83C007C006C005C004122C
:100AB8000F5DAA82AB83D004D005D006D00774306E
:100AC8002AFAE43BEC2440F9A70275520A75530050
:100AD8008E828F83C005C004120F93AE82AF83D07D
:100AE80004D0051CBCFF011D80AF22AE36AF37C352
:100AF800EE940AEF6480948050037542307C017D47
:100B080000EE4F604D75520A7553008E828F83C078
:100B180007C006C005C004120F5DAA82AB83D004CB
:100B2800D005D006D00774302AFAE43BEC2442F909
:100B3800A70275520A7553008E828F83C005C004C0
:100B4800120F93AE82AF83D004D0051CBCFF011DE9
:100B580080AF22AE38AF39C3EE940AEF6480948038
:100B680050037544307C017D00EE4F604D75520A8C
:100B78007553008E828F83C007C006C005C004125B
:100B88000F5DAA82AB83D004D005D006D00774309D
:100B98002AFAE43BEC2444F9A70275520A7553007B
:100BA8008E828F83C005C004120F93AE82AF83D0AC
:100BB80004D0051CBCFF011D80AF22AE3AAF3BC379
:100BC800EE940AEF6480948050037546307C017D72
:100BD80000EE4F604D75520A7553008E828F83C0A8
:100BE80007C006C005C004120F5DAA82AB83D004FB
:100BF800D005D006D00774302AFAE43BEC2446F935
:100C0800A70275520A7553008E828F83C005C004EF
:100C1800120F93AE82AF83D004D0051CBCFF011D18
:100C280080AF22758200120E307E007F00EE243CD9
:100C3800F98782C007C006120E40D006D0070EBE44
:100C480000010FC3EE9402EF6480948040DF2275A8
:100C58008203120E307E007F00EE243EF98782C0A8
:100C680007C006120E40D006D0070EBE00010FC303
:100C7800EE9402EF6480948040DF22758206120EA3
:100C8800307E007F00EE2440F98782C007C006123C
:100C98000E40D006D0070EBE00010FC3EE9402EF3F
:100CA8006480948040DF22758240120E307E007F7F
:100CB80000EE2442F98782C007C006120E40D00613
:100CC800D0070EBE00010FC3EE9402EF648094803B
:100CD80040DF22758243120E307E007F00EE2444EE
:100CE800F98782C007C006120E40D006D0070EBE94
:100CF80000010FC3EE9402EF6480948040DF2275F8
:100D08008246120E307E007F00EE2446F98782C0AC
:100D180007C006120E40D006D0070EBE00010FC352
:100D2800EE9402EF6480948040DF227589017F028F
:100D3800EF6012758AAF758C3CD28C308DFDC28CF9
:100D4800C28D1F80EB22755233755332755431753D
:100D58005536755635755734755839755938755A25
:100D680037755B23755C30755D2A7F007EF77D00E3
:100D78007C007580FFEE528074705580FBBB70025A
:100D88008019EBF4FA74705AC4035407FBED75F03C
:100D980003A42452FA2BF98707800FEEC313FE43EE
:100DA80006F00C8C05BC040040C8EF700630B3BCDC
:100DB80030B2B974705580FEBE70F88F8222C2A31B
:100DC800759002D2A2C2A2020E83C2A3759006D267
:100DD800A2C2A2020E7AC297C296C295C294D293B8
:100DE800A2009292A2019291A2029290D2A2C2A2D1
:100DF800020E7AC2A3C297C296C295D294A2039257
:100E080093A2049292C291C290D2A2C2A2020E7A76
:100E1800C2A3759038D2A2C2A2020E7AC2A375905C
:100E280001D2A2C2A2020E83AF82C2A374804FF580
:100E380090D2A2C2A2020E7AAF82D2A38F90D2A27F
:100E4800C2A2020E7AAD82AE83AFF08D828E838FFE
:100E5800F0120F41FCA3AD82AE83ECFB60138B82D2
:100E6800C007C006C005120E40D005D006D00780C6
:100E7800DA227F32EF14FEFF70FA227FFF8F061E00
:0B0E8800EEFF70F92275815F0205EBA0
:060FCB004572726F720016
:06003B00E478FFF6D8FD99
:100019007900E94400601B7A00900FD1780175A03E
:1000290000E493F2A308B8000205A0D9F4DAF27546
:02003900A0FF26
:100E930020F71130F6138883A88220F509F6A8837A
:100EA3007583002280FEF280F5F022E5828552F000
:100EB300A4C582C0F08553F0A4D0F025F0C5838586
:100EC30052F0A42583F58322E552455360467A0107
:100ED300E55225E0F552E553334012F553E582958B
:100EE30052E583955340030A80E6C3E55313F55354
:100EF300E55213F552C3E5829552F5F0E583955318
:100F03004005F58385F082C3E55313F553E552138A
:050F1300F552DAE122B5
:100041007800E84400600A790175A000E4F309D85A
:10005100FC7800E84400600C7900900001E4F0A312
:04006100D8FCD9FAF4
:100F18007A10E4FBFCE58225E0F582E58333F5836E
:100F2800EB33FBEC33FCEB9552F5F0EC95534006B4
:100F3800FCABF0438201DADD2220F71430F6148886
:100F480083A88220F507E6A88375830022E280F74C
:100F5800E49322E022C2D5E58330E70DD2D5E4C37D
:100F68009582F582E49583F583E55330E70BE4C376
:100F78009552F552E49553F553120ECB30D50BE448
:100F8800C39582F582E49583F58322C2D5E5833043
:100F9800E70DD2D5E4C39582F582E49583F583E520
:100FA8005330E70DB2D5E4C39552F552E49553F5A5
:100FB80053120F1830D50BE4C39582F582E495835C
:030FC800F583228C
:00000001FF
