:100000007531337532327533317534367535357532
:100010003634753739753838753937753A3D753B2B
:1000200030753C2BE4F547F548F549F54A754B0129
:10003000120369120323D200D201D20212032FE469
:10004000F552F553F54FF5507D007CF78D517F004B
:100050007580FFEC528074705580F5307470B53047
:1000600002801FE530F4FE74705EF530C40354075F
:10007000F530E55175F003A42431FE2530F98705EC
:10008000800FECC313FC4304F00F8F51BF040040FA
:10009000BFED60B4BD2B0A8D82120391754B0080B9
:1000A000A7BD3D0280030201918D8212039185520A
:1000B0004C85534D754E00AE4E7F00C3EE9552EF0A
:1000C0009553504AE54E243DF987077E00EF24D032
:1000D000FFEE34FFFE154C74FFB54C02154D854CF8
:1000E00082854D83C007C00612028385825D8583A9
:1000F0005ED006D0078F828E83120407AB82AC835A
:10010000EB2547F547EC3548F548054E80A9854F66
:100110004C85504D7A008A037C00C3EB954FEC95DB
:10012000505050EA2442F987047B00EC24D0FFEBC6
:1001300034FFFE154C74FFB54C02154D854C82857D
:100140004D83C007C006C00212028385825D85838D
:100150005ED002D006D0078F828E83C002120407C1
:10016000AE82AF83D002EE2549F549EF354AF54A14
:100170000A80A3E5492547F582E54A3548F5838598
:100180005254855355854F568550571201C202006F
:10019000488D82C005120391D005E54B6012E552EF
:1001A000243DF8A6050552E4B55202055302004865
:1001B000E54F2442F8A605054FE4B54F020550026D
:1001C0000048AE82AF837C007D00EE4F604D755DD0
:1001D0000A755E008E828F83C007C006C005C0040A
:1001E000120424AA82AB83D004D005D006D00774B1
:1001F000302AFAE43BEC2458F9A702755D0A755ED3
:10020000008E828F83C005C0041203DEAE82AF83EE
:10021000D004D0050CBC00B20D80AF8C068D07E574
:10022000562554FAE5573555FB8C828D83C007C09F
:1002300006C003C0021202CDAC82AD83D002D0034F
:10024000D006D007EC2AFAED3BFBC3EA940BEB9403
:1002500000400E758240C007C006120381D006D050
:10026000071EBEFF011FEF20E718EE2458F9878212
:10027000C007C006120391D006D0071EBEFF011FA3
:1002800080E422AE82AF83EE4F7004900001227CA6
:100290000A7D001EBEFF011F7A007B00C3EA9EEBB1
:1002A0009F50258C5D8D5E90000AC007C006C0037C
:1002B000C002120407AC82AD83D002D003D006D0B6
:1002C000070ABA00D70B80D48C828D8322AE82AF0E
:1002D00083C3EE940AEF648094805004900001225E
:1002E0007C007D00C3E49E74808FF063F08095F005
:1002F0005020755D0A755E008E828F83C005C00434
:1003000012048DAE82AF83D004D0050CBC00D50D95
:1003100080D28C828D8322C2B3759002D2B2C2B2D7
:100320000203D4C2B3759006D2B2C2B20203CBC2EA
:1003300097C296C295C294D293A2009292A20192C1
:1003400091A2029290D2B2C2B20203CBC2B3C297C0
:10035000C296C295D294A2039293A2049292C291A1
:10036000C290D2B2C2B20203CBC2B3759038D2B23D
:10037000C2B20203CBC2B3759001D2B2C2B20203C1
:10038000D4AF82C2B374804FF590D2B2C2B202032E
:10039000CBAF82D2B38F90D2B2C2B20203CBAD82C6
:1003A000AE83AFF08D828E838FF0120471FCA3AD0B
:1003B00082AE83ECFB60138B82C007C006C00512BF
:1003C0000391D005D006D00780DA227F32EF14FEE9
:1003D000FF70FA227FFF8F061EEEFF70F9227A105F
:1003E000E4FBFCE58225E0F582E58333F583EB331E
:1003F000FBEC33FCEB955DF5F0EC955E4006FCAB59
:10040000F0438201DADD22E582855DF0A4C582C079
:10041000F0855EF0A4D0F025F0C583855DF0A425BD
:1004200083F58322E55D455E60467A01E55D25E062
:10043000F55DE55E334012F55EE582955DE58395F9
:100440005E40030A80E6C3E55E13F55EE55D13F5E5
:100450005DC3E582955DF5F0E583955E4005F58326
:1004600085F082C3E55E13F55EE55D13F55DDAE1C7
:100470002220F71430F6148883A88220F507E6A816
:100480008375830022E280F7E49322E022C2D5E55F
:100490008330E70DD2D5E4C39582F582E49583F5E8
:1004A00083E55E30E70DB2D5E4C3955DF55DE49577
:1004B0005EF55E1203DE30D50BE4C39582F582E46F
:0504C0009583F5832285
:00000001FF
